:020000040000FA
:020000002428B2
:040002000034003492
:080008008B138B1C0D288B10DB
:1000100083162030810683122328A10A2108143A6E
:10002000031D202822181928A00A201E1C28A20916
:10003000A003A0030319A209A10120083A20860009
:100040000B113D30810009003D3081008316811382
:1000500001308600811281110114811401158B1762
:100060008B160B168312A001A101A20103013A20F5
:100070008600392882077E340C34B6349E34CC3462
:10008000DA34FA340E34FE34DE34EE34F8347234BA
:06009000BC34F234E2343E
:02400E00103F61
:00000001FF
